{
  "contracts/VotingSystem.sol": {
    "VotingSystem": {
      "abi": [
        {
          "anonymous": false,
          "inputs": [
            {
              "indexed": false,
              "internalType": "bool",
              "name": "isSent",
              "type": "bool"
            },
            {
              "indexed": false,
              "internalType": "uint256",
              "name": "amount",
              "type": "uint256"
            }
          ],
          "name": "CreatorFeeWithdrawed",
          "type": "event"
        },
        {
          "anonymous": false,
          "inputs": [
            {
              "indexed": false,
              "internalType": "uint256",
              "name": "votingID",
              "type": "uint256"
            },
            {
              "indexed": false,
              "internalType": "address",
              "name": "candidate",
              "type": "address"
            },
            {
              "indexed": false,
              "internalType": "uint256",
              "name": "votes",
              "type": "uint256"
            }
          ],
          "name": "GotCandidateVotes",
          "type": "event"
        },
        {
          "anonymous": false,
          "inputs": [
            {
              "indexed": false,
              "internalType": "uint256",
              "name": "votingID",
              "type": "uint256"
            },
            {
              "indexed": false,
              "internalType": "address[]",
              "name": "candidates",
              "type": "address[]"
            }
          ],
          "name": "GotVotingCandidates",
          "type": "event"
        },
        {
          "anonymous": false,
          "inputs": [
            {
              "indexed": false,
              "internalType": "uint256",
              "name": "votingID",
              "type": "uint256"
            },
            {
              "indexed": false,
              "internalType": "bool",
              "name": "isActive",
              "type": "bool"
            }
          ],
          "name": "GotVotingStatus",
          "type": "event"
        },
        {
          "anonymous": false,
          "inputs": [
            {
              "indexed": true,
              "internalType": "address",
              "name": "previousOwner",
              "type": "address"
            },
            {
              "indexed": true,
              "internalType": "address",
              "name": "newOwner",
              "type": "address"
            }
          ],
          "name": "OwnershipTransferred",
          "type": "event"
        },
        {
          "anonymous": false,
          "inputs": [
            {
              "indexed": false,
              "internalType": "uint256",
              "name": "votingID",
              "type": "uint256"
            },
            {
              "indexed": false,
              "internalType": "address",
              "name": "votedCandidate",
              "type": "address"
            },
            {
              "indexed": false,
              "internalType": "address",
              "name": "voter",
              "type": "address"
            }
          ],
          "name": "VoteMade",
          "type": "event"
        },
        {
          "anonymous": false,
          "inputs": [
            {
              "indexed": false,
              "internalType": "address[]",
              "name": "candidates",
              "type": "address[]"
            },
            {
              "indexed": false,
              "internalType": "uint256",
              "name": "votingID",
              "type": "uint256"
            }
          ],
          "name": "VotingCreated",
          "type": "event"
        },
        {
          "anonymous": false,
          "inputs": [
            {
              "indexed": false,
              "internalType": "uint256",
              "name": "votingID",
              "type": "uint256"
            },
            {
              "indexed": false,
              "internalType": "address",
              "name": "winner",
              "type": "address"
            }
          ],
          "name": "VotingFinished",
          "type": "event"
        },
        {
          "inputs": [
            {
              "internalType": "address[]",
              "name": "candidates_",
              "type": "address[]"
            }
          ],
          "name": "createVoting",
          "outputs": [],
          "stateMutability": "nonpayable",
          "type": "function"
        },
        {
          "inputs": [
            {
              "internalType": "uint256",
              "name": "votingID",
              "type": "uint256"
            }
          ],
          "name": "finishVoting",
          "outputs": [],
          "stateMutability": "nonpayable",
          "type": "function"
        },
        {
          "inputs": [
            {
              "internalType": "uint256",
              "name": "votingID",
              "type": "uint256"
            },
            {
              "internalType": "address",
              "name": "candidate",
              "type": "address"
            }
          ],
          "name": "getCandidateVotes",
          "outputs": [],
          "stateMutability": "nonpayable",
          "type": "function"
        },
        {
          "inputs": [
            {
              "internalType": "uint256",
              "name": "votingID",
              "type": "uint256"
            }
          ],
          "name": "getVotingCandidates",
          "outputs": [],
          "stateMutability": "nonpayable",
          "type": "function"
        },
        {
          "inputs": [
            {
              "internalType": "uint256",
              "name": "votingID",
              "type": "uint256"
            }
          ],
          "name": "getVotingStatus",
          "outputs": [],
          "stateMutability": "nonpayable",
          "type": "function"
        },
        {
          "inputs": [
            {
              "internalType": "uint256",
              "name": "votingID",
              "type": "uint256"
            },
            {
              "internalType": "address",
              "name": "votedCandidate",
              "type": "address"
            }
          ],
          "name": "makeVote",
          "outputs": [],
          "stateMutability": "payable",
          "type": "function"
        },
        {
          "inputs": [],
          "name": "owner",
          "outputs": [
            {
              "internalType": "address",
              "name": "",
              "type": "address"
            }
          ],
          "stateMutability": "view",
          "type": "function"
        },
        {
          "inputs": [],
          "name": "renounceOwnership",
          "outputs": [],
          "stateMutability": "nonpayable",
          "type": "function"
        },
        {
          "inputs": [
            {
              "internalType": "address",
              "name": "newOwner",
              "type": "address"
            }
          ],
          "name": "transferOwnership",
          "outputs": [],
          "stateMutability": "nonpayable",
          "type": "function"
        },
        {
          "inputs": [],
          "name": "withdrawCreatorFee",
          "outputs": [],
          "stateMutability": "nonpayable",
          "type": "function"
        }
      ],
      "evm": {
        "bytecode": {
          "linkReferences": {},
          "object": "608060405234801561001057600080fd5b5061002161001c610026565b61002a565b61007a565b3390565b600080546001600160a01b038381166001600160a01b0319831681178455604051919092169283917f8be0079c531659141344cd1fd0a4f28419497f9722a3daafe3b4186f6b6457e09190a35050565b6111c2806100896000396000f3fe6080604052600436106100915760003560e01c8063abe7c08e11610059578063abe7c08e1461012b578063be58b30e1461014b578063c86a95e51461016b578063f16752711461018b578063f2fde38b146101a057610091565b806305ea879c14610096578063715018a6146100b8578063896eb98b146100cd5780638da5cb5b146100e05780638f6339941461010b575b600080fd5b3480156100a257600080fd5b506100b66100b1366004610d3f565b6101c0565b005b3480156100c457600080fd5b506100b661027d565b6100b66100db366004610d3f565b6102c8565b3480156100ec57600080fd5b506100f56104b6565b6040516101029190610d6a565b60405180910390f35b34801561011757600080fd5b506100b6610126366004610d27565b6104c5565b34801561013757600080fd5b506100b6610146366004610d27565b61059e565b34801561015757600080fd5b506100b6610166366004610d27565b6106fb565b34801561017757600080fd5b506100b6610186366004610c66565b610770565b34801561019757600080fd5b506100b66108c3565b3480156101ac57600080fd5b506100b66101bb366004610c45565b610999565b6101c982610a0a565b6101ee5760405162461bcd60e51b81526004016101e590610f71565b60405180910390fd5b60008281526001602052604090206102068183610a48565b6102225760405162461bcd60e51b81526004016101e590610fe2565b6001600160a01b0382166000908152600682016020526040908190205490517f75f41a4d646efa5e4dc07d852cf656a3aa0e0cf9d92c05e9dbf4765f7be17e7391610270918691869161104f565b60405180910390a1505050565b610285610a6a565b6001600160a01b03166102966104b6565b6001600160a01b0316146102bc5760405162461bcd60e51b81526004016101e590610f3c565b6102c66000610a6e565b565b6102d182610a0a565b6102ed5760405162461bcd60e51b81526004016101e590610f71565b34662386f26fc10000146103135760405162461bcd60e51b81526004016101e590610e8c565b600082815260016020526040902061032a81610abe565b6103465760405162461bcd60e51b81526004016101e590610ddf565b336103518282610aec565b1561036e5760405162461bcd60e51b81526004016101e590610fa1565b6103788284610a48565b6103945760405162461bcd60e51b81526004016101e590610f05565b6001600160a01b038316600090815260068301602052604081208054600192906103bf9084906110d7565b909155505060048201546001600160a01b03841660009081526006840160205260409020541115610436576001600160a01b0380841660008181526006850160205260409020546004850155600584015490911614610436576005820180546001600160a01b0319166001600160a01b0385161790555b6001600160a01b03811660009081526003830160205260408120805460ff1916600117905560088301805434929061046f9084906110d7565b90915550506040517fefab4897fc7e9ada38722f329478c4ba183e3d00611d4e758ed51a3042499413906104a890869086908590611030565b60405180910390a150505050565b6000546001600160a01b031690565b6104ce81610a0a565b6104ea5760405162461bcd60e51b81526004016101e590610f71565b60008181526001602052604081208054909160ff9091169081600181111561052257634e487b7160e01b600052602160045260246000fd5b1415610567577f5fd5e2c63caab64b305ca781c28470e5262fc1cb36a042794ae3262d1aea171583600160405161055a9291906110c7565b60405180910390a1610599565b7f5fd5e2c63caab64b305ca781c28470e5262fc1cb36a042794ae3262d1aea17158360006040516102709291906110c7565b505050565b6105a781610a0a565b6105c35760405162461bcd60e51b81526004016101e590610f71565b60008181526001602052604090206105da81610abe565b6105f65760405162461bcd60e51b81526004016101e590610ddf565b6105ff81610b0e565b61061b5760405162461bcd60e51b81526004016101e590610e16565b805460ff19166001178155600581015460088201546001600160a01b0390911690600090600a9061064d90600961110f565b61065791906110ef565b9050600081846008015461066b919061112e565b9050806003600082825461067f91906110d7565b90915550506040516001600160a01b0384169083156108fc029084906000818181858888f193505050501580156106ba573d6000803e3d6000fd5b507f4b45899370a7b27f3680fdedbe765505521fd6af0f1bd77a377399b019c2c8a685846040516106ec929190611019565b60405180910390a15050505050565b61070481610a0a565b6107205760405162461bcd60e51b81526004016101e590610f71565b60008181526001602081905260409182902091517fa6c65e48ae6cf30666755fb4b9cef8c47a3df243b6c52268da0055885d26a22b9161076491859185019061106e565b60405180910390a15050565b610778610a6a565b6001600160a01b03166107896104b6565b6001600160a01b0316146107af5760405162461bcd60e51b81526004016101e590610f3c565b6107b96002610b3c565b6000600160006107c96002610b45565b8152602001908152602001600020905060005b825181101561085157600182600201600085848151811061080d57634e487b7160e01b600052603260045260246000fd5b6020908102919091018101516001600160a01b03168252810191909152604001600020805460ff19169115159190911790558061084981611145565b9150506107dc565b5061086c610862426203f4806110d7565b6007830190610b49565b81516108819060018301906020850190610bb4565b50600060048201557ffb341962ad372403708d19b73b98c63764a29dbd45e478335956fe01157a21a4826108b56002610b45565b604051610764929190610d7e565b6108cb610a6a565b6001600160a01b03166108dc6104b6565b6001600160a01b0316146109025760405162461bcd60e51b81526004016101e590610f3c565b61090a610b68565b156109275760405162461bcd60e51b81526004016101e590610ed7565b600354604051339180156108fc02916000818181858888f19350505050158015610955573d6000803e3d6000fd5b507f7a122cf1b2d0853fa07bff232173a41eb6981731254714a8a55365573d0b91a1600160035460405161098a929190610dcf565b60405180910390a16000600355565b6109a1610a6a565b6001600160a01b03166109b26104b6565b6001600160a01b0316146109d85760405162461bcd60e51b81526004016101e590610f3c565b6001600160a01b0381166109fe5760405162461bcd60e51b81526004016101e590610e46565b610a0781610a6e565b50565b60008181526001602090815260408083208151928301909152600781015467ffffffffffffffff16825290610a3e90610b6f565b159150505b919050565b6001600160a01b03166000908152600291909101602052604090205460ff1690565b3390565b600080546001600160a01b038381166001600160a01b0319831681178455604051919092169283917f8be0079c531659141344cd1fd0a4f28419497f9722a3daafe3b4186f6b6457e09190a35050565b600080825460ff166001811115610ae557634e487b7160e01b600052602160045260246000fd5b1492915050565b6001600160a01b03166000908152600391909101602052604090205460ff1690565b6040805160208101909152600782015467ffffffffffffffff168152600090610b3690610b7e565b92915050565b80546001019055565b5490565b815467ffffffffffffffff191667ffffffffffffffff91909116179055565b6003541590565b5167ffffffffffffffff161590565b6000610b8982610ba4565b8015610b36575050514267ffffffffffffffff909116111590565b5167ffffffffffffffff16151590565b828054828255906000526020600020908101928215610c09579160200282015b82811115610c0957825182546001600160a01b0319166001600160a01b03909116178255602090920191600190910190610bd4565b50610c15929150610c19565b5090565b5b80821115610c155760008155600101610c1a565b80356001600160a01b0381168114610a4357600080fd5b600060208284031215610c56578081fd5b610c5f82610c2e565b9392505050565b60006020808385031215610c78578182fd5b823567ffffffffffffffff80821115610c8f578384fd5b818501915085601f830112610ca2578384fd5b813581811115610cb457610cb4611176565b83810260405185828201018181108582111715610cd357610cd3611176565b604052828152858101935084860182860187018a1015610cf1578788fd5b8795505b83861015610d1a57610d0681610c2e565b855260019590950194938601938601610cf5565b5098975050505050505050565b600060208284031215610d38578081fd5b5035919050565b60008060408385031215610d51578081fd5b82359150610d6160208401610c2e565b90509250929050565b6001600160a01b0391909116815260200190565b604080825283519082018190526000906020906060840190828701845b82811015610dc05781516001600160a01b031684529284019290840190600101610d9b565b50505092019290925292915050565b9115158252602082015260400190565b6020808252601c908201527f566f74696e672068617320616c72656164792066696e69736865642e00000000604082015260600190565b6020808252601690820152752b37ba34b7339034b99039ba34b6361033b7b4b7339760511b604082015260600190565b60208082526026908201527f4f776e61626c653a206e6577206f776e657220697320746865207a65726f206160408201526564647265737360d01b606082015260800190565b6020808252602b908201527f596f75206e65656420746f2073656e6420302e303120457468657220746f206d60408201526a30b5b29030903b37ba329760a91b606082015260800190565b6020808252601490820152732737ba3434b733903a37903bb4ba34323930bb9760611b604082015260600190565b6020808252601b908201527f5468657265206973206e6f20737563682063616e6469646174652e0000000000604082015260600190565b6020808252818101527f4f776e61626c653a2063616c6c6572206973206e6f7420746865206f776e6572604082015260600190565b6020808252601690820152752b37ba34b733903237b2b9903737ba1032bc34b9ba1760511b604082015260600190565b60208082526021908201527f596f7520616c726561647920766f74656420696e207468697320766f74696e676040820152601760f91b606082015260800190565b60208082526019908201527f43616e64696461746520646f6573206e6f742065786973742e00000000000000604082015260600190565b9182526001600160a01b0316602082015260400190565b9283526001600160a01b03918216602084015216604082015260600190565b9283526001600160a01b03919091166020830152604082015260600190565b60006040820184835260206040818501528185548084526060860191508685528285209350845b818110156110ba5784546001600160a01b031683526001948501949284019201611095565b5090979650505050505050565b9182521515602082015260400190565b600082198211156110ea576110ea611160565b500190565b60008261110a57634e487b7160e01b81526012600452602481fd5b500490565b600081600019048311821515161561112957611129611160565b500290565b60008282101561114057611140611160565b500390565b600060001982141561115957611159611160565b5060010190565b634e487b7160e01b600052601160045260246000fd5b634e487b7160e01b600052604160045260246000fdfea2646970667358221220ea739bd275e22549d914bcc89482a9d7b7387c6d3a7fe51f98de558073fe6ec064736f6c63430008000033",
          "opcodes": "PUSH1 0x80 PUSH1 0x40 MSTORE CALLVALUE DUP1 ISZERO PUSH2 0x10 JUMPI PUSH1 0x0 DUP1 REVERT JUMPDEST POP PUSH2 0x21 PUSH2 0x1C PUSH2 0x26 JUMP JUMPDEST PUSH2 0x2A JUMP JUMPDEST PUSH2 0x7A JUMP JUMPDEST CALLER SWAP1 JUMP JUMPDEST PUSH1 0x0 DUP1 SLOAD PUSH1 0x1 PUSH1 0x1 PUSH1 0xA0 SHL SUB DUP4 DUP2 AND PUSH1 0x1 PUSH1 0x1 PUSH1 0xA0 SHL SUB NOT DUP4 AND DUP2 OR DUP5 SSTORE PUSH1 0x40 MLOAD SWAP2 SWAP1 SWAP3 AND SWAP3 DUP4 SWAP2 PUSH32 0x8BE0079C531659141344CD1FD0A4F28419497F9722A3DAAFE3B4186F6B6457E0 SWAP2 SWAP1 LOG3 POP POP JUMP JUMPDEST PUSH2 0x11C2 DUP1 PUSH2 0x89 PUSH1 0x0 CODECOPY PUSH1 0x0 RETURN INVALID PUSH1 0x80 PUSH1 0x40 MSTORE PUSH1 0x4 CALLDATASIZE LT PUSH2 0x91 JUMPI PUSH1 0x0 CALLDATALOAD PUSH1 0xE0 SHR DUP1 PUSH4 0xABE7C08E GT PUSH2 0x59 JUMPI DUP1 PUSH4 0xABE7C08E EQ PUSH2 0x12B JUMPI DUP1 PUSH4 0xBE58B30E EQ PUSH2 0x14B JUMPI DUP1 PUSH4 0xC86A95E5 EQ PUSH2 0x16B JUMPI DUP1 PUSH4 0xF1675271 EQ PUSH2 0x18B JUMPI DUP1 PUSH4 0xF2FDE38B EQ PUSH2 0x1A0 JUMPI PUSH2 0x91 JUMP JUMPDEST DUP1 PUSH4 0x5EA879C EQ PUSH2 0x96 JUMPI DUP1 PUSH4 0x715018A6 EQ PUSH2 0xB8 JUMPI DUP1 PUSH4 0x896EB98B EQ PUSH2 0xCD JUMPI DUP1 PUSH4 0x8DA5CB5B EQ PUSH2 0xE0 JUMPI DUP1 PUSH4 0x8F633994 EQ PUSH2 0x10B JUMPI JUMPDEST PUSH1 0x0 DUP1 REVERT JUMPDEST CALLVALUE DUP1 ISZERO PUSH2 0xA2 JUMPI PUSH1 0x0 DUP1 REVERT JUMPDEST POP PUSH2 0xB6 PUSH2 0xB1 CALLDATASIZE PUSH1 0x4 PUSH2 0xD3F JUMP JUMPDEST PUSH2 0x1C0 JUMP JUMPDEST STOP JUMPDEST CALLVALUE DUP1 ISZERO PUSH2 0xC4 JUMPI PUSH1 0x0 DUP1 REVERT JUMPDEST POP PUSH2 0xB6 PUSH2 0x27D JUMP JUMPDEST PUSH2 0xB6 PUSH2 0xDB CALLDATASIZE PUSH1 0x4 PUSH2 0xD3F JUMP JUMPDEST PUSH2 0x2C8 JUMP JUMPDEST CALLVALUE DUP1 ISZERO PUSH2 0xEC JUMPI PUSH1 0x0 DUP1 REVERT JUMPDEST POP PUSH2 0xF5 PUSH2 0x4B6 JUMP JUMPDEST PUSH1 0x40 MLOAD PUSH2 0x102 SWAP2 SWAP1 PUSH2 0xD6A JUMP JUMPDEST PUSH1 0x40 MLOAD DUP1 SWAP2 SUB SWAP1 RETURN JUMPDEST CALLVALUE DUP1 ISZERO PUSH2 0x117 JUMPI PUSH1 0x0 DUP1 REVERT JUMPDEST POP PUSH2 0xB6 PUSH2 0x126 CALLDATASIZE PUSH1 0x4 PUSH2 0xD27 JUMP JUMPDEST PUSH2 0x4C5 JUMP JUMPDEST CALLVALUE DUP1 ISZERO PUSH2 0x137 JUMPI PUSH1 0x0 DUP1 REVERT JUMPDEST POP PUSH2 0xB6 PUSH2 0x146 CALLDATASIZE PUSH1 0x4 PUSH2 0xD27 JUMP JUMPDEST PUSH2 0x59E JUMP JUMPDEST CALLVALUE DUP1 ISZERO PUSH2 0x157 JUMPI PUSH1 0x0 DUP1 REVERT JUMPDEST POP PUSH2 0xB6 PUSH2 0x166 CALLDATASIZE PUSH1 0x4 PUSH2 0xD27 JUMP JUMPDEST PUSH2 0x6FB JUMP JUMPDEST CALLVALUE DUP1 ISZERO PUSH2 0x177 JUMPI PUSH1 0x0 DUP1 REVERT JUMPDEST POP PUSH2 0xB6 PUSH2 0x186 CALLDATASIZE PUSH1 0x4 PUSH2 0xC66 JUMP JUMPDEST PUSH2 0x770 JUMP JUMPDEST CALLVALUE DUP1 ISZERO PUSH2 0x197 JUMPI PUSH1 0x0 DUP1 REVERT JUMPDEST POP PUSH2 0xB6 PUSH2 0x8C3 JUMP JUMPDEST CALLVALUE DUP1 ISZERO PUSH2 0x1AC JUMPI PUSH1 0x0 DUP1 REVERT JUMPDEST POP PUSH2 0xB6 PUSH2 0x1BB CALLDATASIZE PUSH1 0x4 PUSH2 0xC45 JUMP JUMPDEST PUSH2 0x999 JUMP JUMPDEST PUSH2 0x1C9 DUP3 PUSH2 0xA0A JUMP JUMPDEST PUSH2 0x1EE JUMPI PUSH1 0x40 MLOAD PUSH3 0x461BCD PUSH1 0xE5 SHL DUP2 MSTORE PUSH1 0x4 ADD PUSH2 0x1E5 SWAP1 PUSH2 0xF71 JUMP JUMPDEST PUSH1 0x40 MLOAD DUP1 SWAP2 SUB SWAP1 REVERT JUMPDEST PUSH1 0x0 DUP3 DUP2 MSTORE PUSH1 0x1 PUSH1 0x20 MSTORE PUSH1 0x40 SWAP1 KECCAK256 PUSH2 0x206 DUP2 DUP4 PUSH2 0xA48 JUMP JUMPDEST PUSH2 0x222 JUMPI PUSH1 0x40 MLOAD PUSH3 0x461BCD PUSH1 0xE5 SHL DUP2 MSTORE PUSH1 0x4 ADD PUSH2 0x1E5 SWAP1 PUSH2 0xFE2 JUMP JUMPDEST PUSH1 0x1 PUSH1 0x1 PUSH1 0xA0 SHL SUB DUP3 AND PUSH1 0x0 SWAP1 DUP2 MSTORE PUSH1 0x6 DUP3 ADD PUSH1 0x20 MSTORE PUSH1 0x40 SWAP1 DUP2 SWAP1 KECCAK256 SLOAD SWAP1 MLOAD PUSH32 0x75F41A4D646EFA5E4DC07D852CF656A3AA0E0CF9D92C05E9DBF4765F7BE17E73 SWAP2 PUSH2 0x270 SWAP2 DUP7 SWAP2 DUP7 SWAP2 PUSH2 0x104F JUMP JUMPDEST PUSH1 0x40 MLOAD DUP1 SWAP2 SUB SWAP1 LOG1 POP POP POP JUMP JUMPDEST PUSH2 0x285 PUSH2 0xA6A JUMP JUMPDEST PUSH1 0x1 PUSH1 0x1 PUSH1 0xA0 SHL SUB AND PUSH2 0x296 PUSH2 0x4B6 JUMP JUMPDEST PUSH1 0x1 PUSH1 0x1 PUSH1 0xA0 SHL SUB AND EQ PUSH2 0x2BC JUMPI PUSH1 0x40 MLOAD PUSH3 0x461BCD PUSH1 0xE5 SHL DUP2 MSTORE PUSH1 0x4 ADD PUSH2 0x1E5 SWAP1 PUSH2 0xF3C JUMP JUMPDEST PUSH2 0x2C6 PUSH1 0x0 PUSH2 0xA6E JUMP JUMPDEST JUMP JUMPDEST PUSH2 0x2D1 DUP3 PUSH2 0xA0A JUMP JUMPDEST PUSH2 0x2ED JUMPI PUSH1 0x40 MLOAD PUSH3 0x461BCD PUSH1 0xE5 SHL DUP2 MSTORE PUSH1 0x4 ADD PUSH2 0x1E5 SWAP1 PUSH2 0xF71 JUMP JUMPDEST CALLVALUE PUSH7 0x2386F26FC10000 EQ PUSH2 0x313 JUMPI PUSH1 0x40 MLOAD PUSH3 0x461BCD PUSH1 0xE5 SHL DUP2 MSTORE PUSH1 0x4 ADD PUSH2 0x1E5 SWAP1 PUSH2 0xE8C JUMP JUMPDEST PUSH1 0x0 DUP3 DUP2 MSTORE PUSH1 0x1 PUSH1 0x20 MSTORE PUSH1 0x40 SWAP1 KECCAK256 PUSH2 0x32A DUP2 PUSH2 0xABE JUMP JUMPDEST PUSH2 0x346 JUMPI PUSH1 0x40 MLOAD PUSH3 0x461BCD PUSH1 0xE5 SHL DUP2 MSTORE PUSH1 0x4 ADD PUSH2 0x1E5 SWAP1 PUSH2 0xDDF JUMP JUMPDEST CALLER PUSH2 0x351 DUP3 DUP3 PUSH2 0xAEC JUMP JUMPDEST ISZERO PUSH2 0x36E JUMPI PUSH1 0x40 MLOAD PUSH3 0x461BCD PUSH1 0xE5 SHL DUP2 MSTORE PUSH1 0x4 ADD PUSH2 0x1E5 SWAP1 PUSH2 0xFA1 JUMP JUMPDEST PUSH2 0x378 DUP3 DUP5 PUSH2 0xA48 JUMP JUMPDEST PUSH2 0x394 JUMPI PUSH1 0x40 MLOAD PUSH3 0x461BCD PUSH1 0xE5 SHL DUP2 MSTORE PUSH1 0x4 ADD PUSH2 0x1E5 SWAP1 PUSH2 0xF05 JUMP JUMPDEST PUSH1 0x1 PUSH1 0x1 PUSH1 0xA0 SHL SUB DUP4 AND PUSH1 0x0 SWAP1 DUP2 MSTORE PUSH1 0x6 DUP4 ADD PUSH1 0x20 MSTORE PUSH1 0x40 DUP2 KECCAK256 DUP1 SLOAD PUSH1 0x1 SWAP3 SWAP1 PUSH2 0x3BF SWAP1 DUP5 SWAP1 PUSH2 0x10D7 JUMP JUMPDEST SWAP1 SWAP2 SSTORE POP POP PUSH1 0x4 DUP3 ADD SLOAD PUSH1 0x1 PUSH1 0x1 PUSH1 0xA0 SHL SUB DUP5 AND PUSH1 0x0 SWAP1 DUP2 MSTORE PUSH1 0x6 DUP5 ADD PUSH1 0x20 MSTORE PUSH1 0x40 SWAP1 KECCAK256 SLOAD GT ISZERO PUSH2 0x436 JUMPI PUSH1 0x1 PUSH1 0x1 PUSH1 0xA0 SHL SUB DUP1 DUP5 AND PUSH1 0x0 DUP2 DUP2 MSTORE PUSH1 0x6 DUP6 ADD PUSH1 0x20 MSTORE PUSH1 0x40 SWAP1 KECCAK256 SLOAD PUSH1 0x4 DUP6 ADD SSTORE PUSH1 0x5 DUP5 ADD SLOAD SWAP1 SWAP2 AND EQ PUSH2 0x436 JUMPI PUSH1 0x5 DUP3 ADD DUP1 SLOAD PUSH1 0x1 PUSH1 0x1 PUSH1 0xA0 SHL SUB NOT AND PUSH1 0x1 PUSH1 0x1 PUSH1 0xA0 SHL SUB DUP6 AND OR SWAP1 SSTORE JUMPDEST PUSH1 0x1 PUSH1 0x1 PUSH1 0xA0 SHL SUB DUP2 AND PUSH1 0x0 SWAP1 DUP2 MSTORE PUSH1 0x3 DUP4 ADD PUSH1 0x20 MSTORE PUSH1 0x40 DUP2 KECCAK256 DUP1 SLOAD PUSH1 0xFF NOT AND PUSH1 0x1 OR SWAP1 SSTORE PUSH1 0x8 DUP4 ADD DUP1 SLOAD CALLVALUE SWAP3 SWAP1 PUSH2 0x46F SWAP1 DUP5 SWAP1 PUSH2 0x10D7 JUMP JUMPDEST SWAP1 SWAP2 SSTORE POP POP PUSH1 0x40 MLOAD PUSH32 0xEFAB4897FC7E9ADA38722F329478C4BA183E3D00611D4E758ED51A3042499413 SWAP1 PUSH2 0x4A8 SWAP1 DUP7 SWAP1 DUP7 SWAP1 DUP6 SWAP1 PUSH2 0x1030 JUMP JUMPDEST PUSH1 0x40 MLOAD DUP1 SWAP2 SUB SWAP1 LOG1 POP POP POP POP JUMP JUMPDEST PUSH1 0x0 SLOAD PUSH1 0x1 PUSH1 0x1 PUSH1 0xA0 SHL SUB AND SWAP1 JUMP JUMPDEST PUSH2 0x4CE DUP2 PUSH2 0xA0A JUMP JUMPDEST PUSH2 0x4EA JUMPI PUSH1 0x40 MLOAD PUSH3 0x461BCD PUSH1 0xE5 SHL DUP2 MSTORE PUSH1 0x4 ADD PUSH2 0x1E5 SWAP1 PUSH2 0xF71 JUMP JUMPDEST PUSH1 0x0 DUP2 DUP2 MSTORE PUSH1 0x1 PUSH1 0x20 MSTORE PUSH1 0x40 DUP2 KECCAK256 DUP1 SLOAD SWAP1 SWAP2 PUSH1 0xFF SWAP1 SWAP2 AND SWAP1 DUP2 PUSH1 0x1 DUP2 GT ISZERO PUSH2 0x522 JUMPI PUSH4 0x4E487B71 PUSH1 0xE0 SHL PUSH1 0x0 MSTORE PUSH1 0x21 PUSH1 0x4 MSTORE PUSH1 0x24 PUSH1 0x0 REVERT JUMPDEST EQ ISZERO PUSH2 0x567 JUMPI PUSH32 0x5FD5E2C63CAAB64B305CA781C28470E5262FC1CB36A042794AE3262D1AEA1715 DUP4 PUSH1 0x1 PUSH1 0x40 MLOAD PUSH2 0x55A SWAP3 SWAP2 SWAP1 PUSH2 0x10C7 JUMP JUMPDEST PUSH1 0x40 MLOAD DUP1 SWAP2 SUB SWAP1 LOG1 PUSH2 0x599 JUMP JUMPDEST PUSH32 0x5FD5E2C63CAAB64B305CA781C28470E5262FC1CB36A042794AE3262D1AEA1715 DUP4 PUSH1 0x0 PUSH1 0x40 MLOAD PUSH2 0x270 SWAP3 SWAP2 SWAP1 PUSH2 0x10C7 JUMP JUMPDEST POP POP POP JUMP JUMPDEST PUSH2 0x5A7 DUP2 PUSH2 0xA0A JUMP JUMPDEST PUSH2 0x5C3 JUMPI PUSH1 0x40 MLOAD PUSH3 0x461BCD PUSH1 0xE5 SHL DUP2 MSTORE PUSH1 0x4 ADD PUSH2 0x1E5 SWAP1 PUSH2 0xF71 JUMP JUMPDEST PUSH1 0x0 DUP2 DUP2 MSTORE PUSH1 0x1 PUSH1 0x20 MSTORE PUSH1 0x40 SWAP1 KECCAK256 PUSH2 0x5DA DUP2 PUSH2 0xABE JUMP JUMPDEST PUSH2 0x5F6 JUMPI PUSH1 0x40 MLOAD PUSH3 0x461BCD PUSH1 0xE5 SHL DUP2 MSTORE PUSH1 0x4 ADD PUSH2 0x1E5 SWAP1 PUSH2 0xDDF JUMP JUMPDEST PUSH2 0x5FF DUP2 PUSH2 0xB0E JUMP JUMPDEST PUSH2 0x61B JUMPI PUSH1 0x40 MLOAD PUSH3 0x461BCD PUSH1 0xE5 SHL DUP2 MSTORE PUSH1 0x4 ADD PUSH2 0x1E5 SWAP1 PUSH2 0xE16 JUMP JUMPDEST DUP1 SLOAD PUSH1 0xFF NOT AND PUSH1 0x1 OR DUP2 SSTORE PUSH1 0x5 DUP2 ADD SLOAD PUSH1 0x8 DUP3 ADD SLOAD PUSH1 0x1 PUSH1 0x1 PUSH1 0xA0 SHL SUB SWAP1 SWAP2 AND SWAP1 PUSH1 0x0 SWAP1 PUSH1 0xA SWAP1 PUSH2 0x64D SWAP1 PUSH1 0x9 PUSH2 0x110F JUMP JUMPDEST PUSH2 0x657 SWAP2 SWAP1 PUSH2 0x10EF JUMP JUMPDEST SWAP1 POP PUSH1 0x0 DUP2 DUP5 PUSH1 0x8 ADD SLOAD PUSH2 0x66B SWAP2 SWAP1 PUSH2 0x112E JUMP JUMPDEST SWAP1 POP DUP1 PUSH1 0x3 PUSH1 0x0 DUP3 DUP3 SLOAD PUSH2 0x67F SWAP2 SWAP1 PUSH2 0x10D7 JUMP JUMPDEST SWAP1 SWAP2 SSTORE POP POP PUSH1 0x40 MLOAD PUSH1 0x1 PUSH1 0x1 PUSH1 0xA0 SHL SUB DUP5 AND SWAP1 DUP4 ISZERO PUSH2 0x8FC MUL SWAP1 DUP5 SWAP1 PUSH1 0x0 DUP2 DUP2 DUP2 DUP6 DUP9 DUP9 CALL SWAP4 POP POP POP POP ISZERO DUP1 ISZERO PUSH2 0x6BA JUMPI RETURNDATASIZE PUSH1 0x0 DUP1 RETURNDATACOPY RETURNDATASIZE PUSH1 0x0 REVERT JUMPDEST POP PUSH32 0x4B45899370A7B27F3680FDEDBE765505521FD6AF0F1BD77A377399B019C2C8A6 DUP6 DUP5 PUSH1 0x40 MLOAD PUSH2 0x6EC SWAP3 SWAP2 SWAP1 PUSH2 0x1019 JUMP JUMPDEST PUSH1 0x40 MLOAD DUP1 SWAP2 SUB SWAP1 LOG1 POP POP POP POP POP JUMP JUMPDEST PUSH2 0x704 DUP2 PUSH2 0xA0A JUMP JUMPDEST PUSH2 0x720 JUMPI PUSH1 0x40 MLOAD PUSH3 0x461BCD PUSH1 0xE5 SHL DUP2 MSTORE PUSH1 0x4 ADD PUSH2 0x1E5 SWAP1 PUSH2 0xF71 JUMP JUMPDEST PUSH1 0x0 DUP2 DUP2 MSTORE PUSH1 0x1 PUSH1 0x20 DUP2 SWAP1 MSTORE PUSH1 0x40 SWAP2 DUP3 SWAP1 KECCAK256 SWAP2 MLOAD PUSH32 0xA6C65E48AE6CF30666755FB4B9CEF8C47A3DF243B6C52268DA0055885D26A22B SWAP2 PUSH2 0x764 SWAP2 DUP6 SWAP2 DUP6 ADD SWAP1 PUSH2 0x106E JUMP JUMPDEST PUSH1 0x40 MLOAD DUP1 SWAP2 SUB SWAP1 LOG1 POP POP JUMP JUMPDEST PUSH2 0x778 PUSH2 0xA6A JUMP JUMPDEST PUSH1 0x1 PUSH1 0x1 PUSH1 0xA0 SHL SUB AND PUSH2 0x789 PUSH2 0x4B6 JUMP JUMPDEST PUSH1 0x1 PUSH1 0x1 PUSH1 0xA0 SHL SUB AND EQ PUSH2 0x7AF JUMPI PUSH1 0x40 MLOAD PUSH3 0x461BCD PUSH1 0xE5 SHL DUP2 MSTORE PUSH1 0x4 ADD PUSH2 0x1E5 SWAP1 PUSH2 0xF3C JUMP JUMPDEST PUSH2 0x7B9 PUSH1 0x2 PUSH2 0xB3C JUMP JUMPDEST PUSH1 0x0 PUSH1 0x1 PUSH1 0x0 PUSH2 0x7C9 PUSH1 0x2 PUSH2 0xB45 JUMP JUMPDEST DUP2 MSTORE PUSH1 0x20 ADD SWAP1 DUP2 MSTORE PUSH1 0x20 ADD PUSH1 0x0 KECCAK256 SWAP1 POP PUSH1 0x0 JUMPDEST DUP3 MLOAD DUP2 LT ISZERO PUSH2 0x851 JUMPI PUSH1 0x1 DUP3 PUSH1 0x2 ADD PUSH1 0x0 DUP6 DUP5 DUP2 MLOAD DUP2 LT PUSH2 0x80D JUMPI PUSH4 0x4E487B71 PUSH1 0xE0 SHL PUSH1 0x0 MSTORE PUSH1 0x32 PUSH1 0x4 MSTORE PUSH1 0x24 PUSH1 0x0 REVERT JUMPDEST PUSH1 0x20 SWAP1 DUP2 MUL SWAP2 SWAP1 SWAP2 ADD DUP2 ADD MLOAD PUSH1 0x1 PUSH1 0x1 PUSH1 0xA0 SHL SUB AND DUP3 MSTORE DUP2 ADD SWAP2 SWAP1 SWAP2 MSTORE PUSH1 0x40 ADD PUSH1 0x0 KECCAK256 DUP1 SLOAD PUSH1 0xFF NOT AND SWAP2 ISZERO ISZERO SWAP2 SWAP1 SWAP2 OR SWAP1 SSTORE DUP1 PUSH2 0x849 DUP2 PUSH2 0x1145 JUMP JUMPDEST SWAP2 POP POP PUSH2 0x7DC JUMP JUMPDEST POP PUSH2 0x86C PUSH2 0x862 TIMESTAMP PUSH3 0x3F480 PUSH2 0x10D7 JUMP JUMPDEST PUSH1 0x7 DUP4 ADD SWAP1 PUSH2 0xB49 JUMP JUMPDEST DUP2 MLOAD PUSH2 0x881 SWAP1 PUSH1 0x1 DUP4 ADD SWAP1 PUSH1 0x20 DUP6 ADD SWAP1 PUSH2 0xBB4 JUMP JUMPDEST POP PUSH1 0x0 PUSH1 0x4 DUP3 ADD SSTORE PUSH32 0xFB341962AD372403708D19B73B98C63764A29DBD45E478335956FE01157A21A4 DUP3 PUSH2 0x8B5 PUSH1 0x2 PUSH2 0xB45 JUMP JUMPDEST PUSH1 0x40 MLOAD PUSH2 0x764 SWAP3 SWAP2 SWAP1 PUSH2 0xD7E JUMP JUMPDEST PUSH2 0x8CB PUSH2 0xA6A JUMP JUMPDEST PUSH1 0x1 PUSH1 0x1 PUSH1 0xA0 SHL SUB AND PUSH2 0x8DC PUSH2 0x4B6 JUMP JUMPDEST PUSH1 0x1 PUSH1 0x1 PUSH1 0xA0 SHL SUB AND EQ PUSH2 0x902 JUMPI PUSH1 0x40 MLOAD PUSH3 0x461BCD PUSH1 0xE5 SHL DUP2 MSTORE PUSH1 0x4 ADD PUSH2 0x1E5 SWAP1 PUSH2 0xF3C JUMP JUMPDEST PUSH2 0x90A PUSH2 0xB68 JUMP JUMPDEST ISZERO PUSH2 0x927 JUMPI PUSH1 0x40 MLOAD PUSH3 0x461BCD PUSH1 0xE5 SHL DUP2 MSTORE PUSH1 0x4 ADD PUSH2 0x1E5 SWAP1 PUSH2 0xED7 JUMP JUMPDEST PUSH1 0x3 SLOAD PUSH1 0x40 MLOAD CALLER SWAP2 DUP1 ISZERO PUSH2 0x8FC MUL SWAP2 PUSH1 0x0 DUP2 DUP2 DUP2 DUP6 DUP9 DUP9 CALL SWAP4 POP POP POP POP ISZERO DUP1 ISZERO PUSH2 0x955 JUMPI RETURNDATASIZE PUSH1 0x0 DUP1 RETURNDATACOPY RETURNDATASIZE PUSH1 0x0 REVERT JUMPDEST POP PUSH32 0x7A122CF1B2D0853FA07BFF232173A41EB6981731254714A8A55365573D0B91A1 PUSH1 0x1 PUSH1 0x3 SLOAD PUSH1 0x40 MLOAD PUSH2 0x98A SWAP3 SWAP2 SWAP1 PUSH2 0xDCF JUMP JUMPDEST PUSH1 0x40 MLOAD DUP1 SWAP2 SUB SWAP1 LOG1 PUSH1 0x0 PUSH1 0x3 SSTORE JUMP JUMPDEST PUSH2 0x9A1 PUSH2 0xA6A JUMP JUMPDEST PUSH1 0x1 PUSH1 0x1 PUSH1 0xA0 SHL SUB AND PUSH2 0x9B2 PUSH2 0x4B6 JUMP JUMPDEST PUSH1 0x1 PUSH1 0x1 PUSH1 0xA0 SHL SUB AND EQ PUSH2 0x9D8 JUMPI PUSH1 0x40 MLOAD PUSH3 0x461BCD PUSH1 0xE5 SHL DUP2 MSTORE PUSH1 0x4 ADD PUSH2 0x1E5 SWAP1 PUSH2 0xF3C JUMP JUMPDEST PUSH1 0x1 PUSH1 0x1 PUSH1 0xA0 SHL SUB DUP2 AND PUSH2 0x9FE JUMPI PUSH1 0x40 MLOAD PUSH3 0x461BCD PUSH1 0xE5 SHL DUP2 MSTORE PUSH1 0x4 ADD PUSH2 0x1E5 SWAP1 PUSH2 0xE46 JUMP JUMPDEST PUSH2 0xA07 DUP2 PUSH2 0xA6E JUMP JUMPDEST POP JUMP JUMPDEST PUSH1 0x0 DUP2 DUP2 MSTORE PUSH1 0x1 PUSH1 0x20 SWAP1 DUP2 MSTORE PUSH1 0x40 DUP1 DUP4 KECCAK256 DUP2 MLOAD SWAP3 DUP4 ADD SWAP1 SWAP2 MSTORE PUSH1 0x7 DUP2 ADD SLOAD PUSH8 0xFFFFFFFFFFFFFFFF AND DUP3 MSTORE SWAP1 PUSH2 0xA3E SWAP1 PUSH2 0xB6F JUMP JUMPDEST ISZERO SWAP2 POP POP JUMPDEST SWAP2 SWAP1 POP JUMP JUMPDEST PUSH1 0x1 PUSH1 0x1 PUSH1 0xA0 SHL SUB AND PUSH1 0x0 SWAP1 DUP2 MSTORE PUSH1 0x2 SWAP2 SWAP1 SWAP2 ADD PUSH1 0x20 MSTORE PUSH1 0x40 SWAP1 KECCAK256 SLOAD PUSH1 0xFF AND SWAP1 JUMP JUMPDEST CALLER SWAP1 JUMP JUMPDEST PUSH1 0x0 DUP1 SLOAD PUSH1 0x1 PUSH1 0x1 PUSH1 0xA0 SHL SUB DUP4 DUP2 AND PUSH1 0x1 PUSH1 0x1 PUSH1 0xA0 SHL SUB NOT DUP4 AND DUP2 OR DUP5 SSTORE PUSH1 0x40 MLOAD SWAP2 SWAP1 SWAP3 AND SWAP3 DUP4 SWAP2 PUSH32 0x8BE0079C531659141344CD1FD0A4F28419497F9722A3DAAFE3B4186F6B6457E0 SWAP2 SWAP1 LOG3 POP POP JUMP JUMPDEST PUSH1 0x0 DUP1 DUP3 SLOAD PUSH1 0xFF AND PUSH1 0x1 DUP2 GT ISZERO PUSH2 0xAE5 JUMPI PUSH4 0x4E487B71 PUSH1 0xE0 SHL PUSH1 0x0 MSTORE PUSH1 0x21 PUSH1 0x4 MSTORE PUSH1 0x24 PUSH1 0x0 REVERT JUMPDEST EQ SWAP3 SWAP2 POP POP JUMP JUMPDEST PUSH1 0x1 PUSH1 0x1 PUSH1 0xA0 SHL SUB AND PUSH1 0x0 SWAP1 DUP2 MSTORE PUSH1 0x3 SWAP2 SWAP1 SWAP2 ADD PUSH1 0x20 MSTORE PUSH1 0x40 SWAP1 KECCAK256 SLOAD PUSH1 0xFF AND SWAP1 JUMP JUMPDEST PUSH1 0x40 DUP1 MLOAD PUSH1 0x20 DUP2 ADD SWAP1 SWAP2 MSTORE PUSH1 0x7 DUP3 ADD SLOAD PUSH8 0xFFFFFFFFFFFFFFFF AND DUP2 MSTORE PUSH1 0x0 SWAP1 PUSH2 0xB36 SWAP1 PUSH2 0xB7E JUMP JUMPDEST SWAP3 SWAP2 POP POP JUMP JUMPDEST DUP1 SLOAD PUSH1 0x1 ADD SWAP1 SSTORE JUMP JUMPDEST SLOAD SWAP1 JUMP JUMPDEST DUP2 SLOAD PUSH8 0xFFFFFFFFFFFFFFFF NOT AND PUSH8 0xFFFFFFFFFFFFFFFF SWAP2 SWAP1 SWAP2 AND OR SWAP1 SSTORE JUMP JUMPDEST PUSH1 0x3 SLOAD ISZERO SWAP1 JUMP JUMPDEST MLOAD PUSH8 0xFFFFFFFFFFFFFFFF AND ISZERO SWAP1 JUMP JUMPDEST PUSH1 0x0 PUSH2 0xB89 DUP3 PUSH2 0xBA4 JUMP JUMPDEST DUP1 ISZERO PUSH2 0xB36 JUMPI POP POP MLOAD TIMESTAMP PUSH8 0xFFFFFFFFFFFFFFFF SWAP1 SWAP2 AND GT ISZERO SWAP1 JUMP JUMPDEST MLOAD PUSH8 0xFFFFFFFFFFFFFFFF AND ISZERO ISZERO SWAP1 JUMP JUMPDEST DUP3 DUP1 SLOAD DUP3 DUP3 SSTORE SWAP1 PUSH1 0x0 MSTORE PUSH1 0x20 PUSH1 0x0 KECCAK256 SWAP1 DUP2 ADD SWAP3 DUP3 ISZERO PUSH2 0xC09 JUMPI SWAP2 PUSH1 0x20 MUL DUP3 ADD JUMPDEST DUP3 DUP2 GT ISZERO PUSH2 0xC09 JUMPI DUP3 MLOAD DUP3 SLOAD PUSH1 0x1 PUSH1 0x1 PUSH1 0xA0 SHL SUB NOT AND PUSH1 0x1 PUSH1 0x1 PUSH1 0xA0 SHL SUB SWAP1 SWAP2 AND OR DUP3 SSTORE PUSH1 0x20 SWAP1 SWAP3 ADD SWAP2 PUSH1 0x1 SWAP1 SWAP2 ADD SWAP1 PUSH2 0xBD4 JUMP JUMPDEST POP PUSH2 0xC15 SWAP3 SWAP2 POP PUSH2 0xC19 JUMP JUMPDEST POP SWAP1 JUMP JUMPDEST JUMPDEST DUP1 DUP3 GT ISZERO PUSH2 0xC15 JUMPI PUSH1 0x0 DUP2 SSTORE PUSH1 0x1 ADD PUSH2 0xC1A JUMP JUMPDEST DUP1 CALLDATALOAD PUSH1 0x1 PUSH1 0x1 PUSH1 0xA0 SHL SUB DUP2 AND DUP2 EQ PUSH2 0xA43 JUMPI PUSH1 0x0 DUP1 REVERT JUMPDEST PUSH1 0x0 PUSH1 0x20 DUP3 DUP5 SUB SLT ISZERO PUSH2 0xC56 JUMPI DUP1 DUP2 REVERT JUMPDEST PUSH2 0xC5F DUP3 PUSH2 0xC2E JUMP JUMPDEST SWAP4 SWAP3 POP POP POP JUMP JUMPDEST PUSH1 0x0 PUSH1 0x20 DUP1 DUP4 DUP6 SUB SLT ISZERO PUSH2 0xC78 JUMPI DUP2 DUP3 REVERT JUMPDEST DUP3 CALLDATALOAD PUSH8 0xFFFFFFFFFFFFFFFF DUP1 DUP3 GT ISZERO PUSH2 0xC8F JUMPI DUP4 DUP5 REVERT JUMPDEST DUP2 DUP6 ADD SWAP2 POP DUP6 PUSH1 0x1F DUP4 ADD SLT PUSH2 0xCA2 JUMPI DUP4 DUP5 REVERT JUMPDEST DUP2 CALLDATALOAD DUP2 DUP2 GT ISZERO PUSH2 0xCB4 JUMPI PUSH2 0xCB4 PUSH2 0x1176 JUMP JUMPDEST DUP4 DUP2 MUL PUSH1 0x40 MLOAD DUP6 DUP3 DUP3 ADD ADD DUP2 DUP2 LT DUP6 DUP3 GT OR ISZERO PUSH2 0xCD3 JUMPI PUSH2 0xCD3 PUSH2 0x1176 JUMP JUMPDEST PUSH1 0x40 MSTORE DUP3 DUP2 MSTORE DUP6 DUP2 ADD SWAP4 POP DUP5 DUP7 ADD DUP3 DUP7 ADD DUP8 ADD DUP11 LT ISZERO PUSH2 0xCF1 JUMPI DUP8 DUP9 REVERT JUMPDEST DUP8 SWAP6 POP JUMPDEST DUP4 DUP7 LT ISZERO PUSH2 0xD1A JUMPI PUSH2 0xD06 DUP2 PUSH2 0xC2E JUMP JUMPDEST DUP6 MSTORE PUSH1 0x1 SWAP6 SWAP1 SWAP6 ADD SWAP5 SWAP4 DUP7 ADD SWAP4 DUP7 ADD PUSH2 0xCF5 JUMP JUMPDEST POP SWAP9 SWAP8 POP POP POP POP POP POP POP POP JUMP JUMPDEST PUSH1 0x0 PUSH1 0x20 DUP3 DUP5 SUB SLT ISZERO PUSH2 0xD38 JUMPI DUP1 DUP2 REVERT JUMPDEST POP CALLDATALOAD SWAP2 SWAP1 POP JUMP JUMPDEST PUSH1 0x0 DUP1 PUSH1 0x40 DUP4 DUP6 SUB SLT ISZERO PUSH2 0xD51 JUMPI DUP1 DUP2 REVERT JUMPDEST DUP3 CALLDATALOAD SWAP2 POP PUSH2 0xD61 PUSH1 0x20 DUP5 ADD PUSH2 0xC2E JUMP JUMPDEST SWAP1 POP SWAP3 POP SWAP3 SWAP1 POP JUMP JUMPDEST PUSH1 0x1 PUSH1 0x1 PUSH1 0xA0 SHL SUB SWAP2 SWAP1 SWAP2 AND DUP2 MSTORE PUSH1 0x20 ADD SWAP1 JUMP JUMPDEST PUSH1 0x40 DUP1 DUP3 MSTORE DUP4 MLOAD SWAP1 DUP3 ADD DUP2 SWAP1 MSTORE PUSH1 0x0 SWAP1 PUSH1 0x20 SWAP1 PUSH1 0x60 DUP5 ADD SWAP1 DUP3 DUP8 ADD DUP5 JUMPDEST DUP3 DUP2 LT ISZERO PUSH2 0xDC0 JUMPI DUP2 MLOAD PUSH1 0x1 PUSH1 0x1 PUSH1 0xA0 SHL SUB AND DUP5 MSTORE SWAP3 DUP5 ADD SWAP3 SWAP1 DUP5 ADD SWAP1 PUSH1 0x1 ADD PUSH2 0xD9B JUMP JUMPDEST POP POP POP SWAP3 ADD SWAP3 SWAP1 SWAP3 MSTORE SWAP3 SWAP2 POP POP JUMP JUMPDEST SWAP2 ISZERO ISZERO DUP3 MSTORE PUSH1 0x20 DUP3 ADD MSTORE PUSH1 0x40 ADD SWAP1 JUMP JUMPDEST PUSH1 0x20 DUP1 DUP3 MSTORE PUSH1 0x1C SWAP1 DUP3 ADD MSTORE PUSH32 0x566F74696E672068617320616C72656164792066696E69736865642E00000000 PUSH1 0x40 DUP3 ADD MSTORE PUSH1 0x60 ADD SWAP1 JUMP JUMPDEST PUSH1 0x20 DUP1 DUP3 MSTORE PUSH1 0x16 SWAP1 DUP3 ADD MSTORE PUSH22 0x2B37BA34B7339034B99039BA34B6361033B7B4B73397 PUSH1 0x51 SHL PUSH1 0x40 DUP3 ADD MSTORE PUSH1 0x60 ADD SWAP1 JUMP JUMPDEST PUSH1 0x20 DUP1 DUP3 MSTORE PUSH1 0x26 SWAP1 DUP3 ADD MSTORE PUSH32 0x4F776E61626C653A206E6577206F776E657220697320746865207A65726F2061 PUSH1 0x40 DUP3 ADD MSTORE PUSH6 0x646472657373 PUSH1 0xD0 SHL PUSH1 0x60 DUP3 ADD MSTORE PUSH1 0x80 ADD SWAP1 JUMP JUMPDEST PUSH1 0x20 DUP1 DUP3 MSTORE PUSH1 0x2B SWAP1 DUP3 ADD MSTORE PUSH32 0x596F75206E65656420746F2073656E6420302E303120457468657220746F206D PUSH1 0x40 DUP3 ADD MSTORE PUSH11 0x30B5B29030903B37BA3297 PUSH1 0xA9 SHL PUSH1 0x60 DUP3 ADD MSTORE PUSH1 0x80 ADD SWAP1 JUMP JUMPDEST PUSH1 0x20 DUP1 DUP3 MSTORE PUSH1 0x14 SWAP1 DUP3 ADD MSTORE PUSH20 0x2737BA3434B733903A37903BB4BA34323930BB97 PUSH1 0x61 SHL PUSH1 0x40 DUP3 ADD MSTORE PUSH1 0x60 ADD SWAP1 JUMP JUMPDEST PUSH1 0x20 DUP1 DUP3 MSTORE PUSH1 0x1B SWAP1 DUP3 ADD MSTORE PUSH32 0x5468657265206973206E6F20737563682063616E6469646174652E0000000000 PUSH1 0x40 DUP3 ADD MSTORE PUSH1 0x60 ADD SWAP1 JUMP JUMPDEST PUSH1 0x20 DUP1 DUP3 MSTORE DUP2 DUP2 ADD MSTORE PUSH32 0x4F776E61626C653A2063616C6C6572206973206E6F7420746865206F776E6572 PUSH1 0x40 DUP3 ADD MSTORE PUSH1 0x60 ADD SWAP1 JUMP JUMPDEST PUSH1 0x20 DUP1 DUP3 MSTORE PUSH1 0x16 SWAP1 DUP3 ADD MSTORE PUSH22 0x2B37BA34B733903237B2B9903737BA1032BC34B9BA17 PUSH1 0x51 SHL PUSH1 0x40 DUP3 ADD MSTORE PUSH1 0x60 ADD SWAP1 JUMP JUMPDEST PUSH1 0x20 DUP1 DUP3 MSTORE PUSH1 0x21 SWAP1 DUP3 ADD MSTORE PUSH32 0x596F7520616C726561647920766F74656420696E207468697320766F74696E67 PUSH1 0x40 DUP3 ADD MSTORE PUSH1 0x17 PUSH1 0xF9 SHL PUSH1 0x60 DUP3 ADD MSTORE PUSH1 0x80 ADD SWAP1 JUMP JUMPDEST PUSH1 0x20 DUP1 DUP3 MSTORE PUSH1 0x19 SWAP1 DUP3 ADD MSTORE PUSH32 0x43616E64696461746520646F6573206E6F742065786973742E00000000000000 PUSH1 0x40 DUP3 ADD MSTORE PUSH1 0x60 ADD SWAP1 JUMP JUMPDEST SWAP2 DUP3 MSTORE PUSH1 0x1 PUSH1 0x1 PUSH1 0xA0 SHL SUB AND PUSH1 0x20 DUP3 ADD MSTORE PUSH1 0x40 ADD SWAP1 JUMP JUMPDEST SWAP3 DUP4 MSTORE PUSH1 0x1 PUSH1 0x1 PUSH1 0xA0 SHL SUB SWAP2 DUP3 AND PUSH1 0x20 DUP5 ADD MSTORE AND PUSH1 0x40 DUP3 ADD MSTORE PUSH1 0x60 ADD SWAP1 JUMP JUMPDEST SWAP3 DUP4 MSTORE PUSH1 0x1 PUSH1 0x1 PUSH1 0xA0 SHL SUB SWAP2 SWAP1 SWAP2 AND PUSH1 0x20 DUP4 ADD MSTORE PUSH1 0x40 DUP3 ADD MSTORE PUSH1 0x60 ADD SWAP1 JUMP JUMPDEST PUSH1 0x0 PUSH1 0x40 DUP3 ADD DUP5 DUP4 MSTORE PUSH1 0x20 PUSH1 0x40 DUP2 DUP6 ADD MSTORE DUP2 DUP6 SLOAD DUP1 DUP5 MSTORE PUSH1 0x60 DUP7 ADD SWAP2 POP DUP7 DUP6 MSTORE DUP3 DUP6 KECCAK256 SWAP4 POP DUP5 JUMPDEST DUP2 DUP2 LT ISZERO PUSH2 0x10BA JUMPI DUP5 SLOAD PUSH1 0x1 PUSH1 0x1 PUSH1 0xA0 SHL SUB AND DUP4 MSTORE PUSH1 0x1 SWAP5 DUP6 ADD SWAP5 SWAP3 DUP5 ADD SWAP3 ADD PUSH2 0x1095 JUMP JUMPDEST POP SWAP1 SWAP8 SWAP7 POP POP POP POP POP POP POP JUMP JUMPDEST SWAP2 DUP3 MSTORE ISZERO ISZERO PUSH1 0x20 DUP3 ADD MSTORE PUSH1 0x40 ADD SWAP1 JUMP JUMPDEST PUSH1 0x0 DUP3 NOT DUP3 GT ISZERO PUSH2 0x10EA JUMPI PUSH2 0x10EA PUSH2 0x1160 JUMP JUMPDEST POP ADD SWAP1 JUMP JUMPDEST PUSH1 0x0 DUP3 PUSH2 0x110A JUMPI PUSH4 0x4E487B71 PUSH1 0xE0 SHL DUP2 MSTORE PUSH1 0x12 PUSH1 0x4 MSTORE PUSH1 0x24 DUP2 REVERT JUMPDEST POP DIV SWAP1 JUMP JUMPDEST PUSH1 0x0 DUP2 PUSH1 0x0 NOT DIV DUP4 GT DUP3 ISZERO ISZERO AND ISZERO PUSH2 0x1129 JUMPI PUSH2 0x1129 PUSH2 0x1160 JUMP JUMPDEST POP MUL SWAP1 JUMP JUMPDEST PUSH1 0x0 DUP3 DUP3 LT ISZERO PUSH2 0x1140 JUMPI PUSH2 0x1140 PUSH2 0x1160 JUMP JUMPDEST POP SUB SWAP1 JUMP JUMPDEST PUSH1 0x0 PUSH1 0x0 NOT DUP3 EQ ISZERO PUSH2 0x1159 JUMPI PUSH2 0x1159 PUSH2 0x1160 JUMP JUMPDEST POP PUSH1 0x1 ADD SWAP1 JUMP JUMPDEST PUSH4 0x4E487B71 PUSH1 0xE0 SHL PUSH1 0x0 MSTORE PUSH1 0x11 PUSH1 0x4 MSTORE PUSH1 0x24 PUSH1 0x0 REVERT JUMPDEST PUSH4 0x4E487B71 PUSH1 0xE0 SHL PUSH1 0x0 MSTORE PUSH1 0x41 PUSH1 0x4 MSTORE PUSH1 0x24 PUSH1 0x0 REVERT INVALID LOG2 PUSH5 0x6970667358 0x22 SLT KECCAK256 0xEA PUSH20 0x9BD275E22549D914BCC89482A9D7B7387C6D3A7F 0xE5 0x1F SWAP9 0xDE SSTORE DUP1 PUSH20 0xFE6EC064736F6C63430008000033000000000000 "
        },
        "methodIdentifiers": {
          "createVoting(address[])": "c86a95e5",
          "finishVoting(uint256)": "abe7c08e",
          "getCandidateVotes(uint256,address)": "05ea879c",
          "getVotingCandidates(uint256)": "be58b30e",
          "getVotingStatus(uint256)": "8f633994",
          "makeVote(uint256,address)": "896eb98b",
          "owner()": "8da5cb5b",
          "renounceOwnership()": "715018a6",
          "transferOwnership(address)": "f2fde38b",
          "withdrawCreatorFee()": "f1675271"
        }
      }
    }
  }
}