{
    "contractName": "VotingSystem",
    "abi": [
        {
            "anonymous": false,
            "inputs": [
                {
                    "indexed": true,
                    "internalType": "address",
                    "name": "previousOwner",
                    "type": "address"
                },
                {
                    "indexed": true,
                    "internalType": "address",
                    "name": "newOwner",
                    "type": "address"
                }
            ],
            "name": "OwnershipTransferred",
            "type": "event"
        },
        {
            "inputs": [
                {
                    "internalType": "address[]",
                    "name": "candidates_",
                    "type": "address[]"
                }
            ],
            "name": "createVoting",
            "outputs": [
                {
                    "internalType": "uint256",
                    "name": "",
                    "type": "uint256"
                }
            ],
            "stateMutability": "nonpayable",
            "type": "function"
        },
        {
            "inputs": [
                {
                    "internalType": "uint256",
                    "name": "votingID",
                    "type": "uint256"
                }
            ],
            "name": "finishVoting",
            "outputs": [
                {
                    "internalType": "bool",
                    "name": "",
                    "type": "bool"
                }
            ],
            "stateMutability": "nonpayable",
            "type": "function"
        },
        {
            "inputs": [
                {
                    "internalType": "uint256",
                    "name": "votingID",
                    "type": "uint256"
                },
                {
                    "internalType": "address",
                    "name": "candidate",
                    "type": "address"
                }
            ],
            "name": "getCandidateVotes",
            "outputs": [
                {
                    "internalType": "uint256",
                    "name": "",
                    "type": "uint256"
                }
            ],
            "stateMutability": "view",
            "type": "function"
        },
        {
            "inputs": [
                {
                    "internalType": "uint256",
                    "name": "votingID",
                    "type": "uint256"
                }
            ],
            "name": "getVotingCandidates",
            "outputs": [
                {
                    "internalType": "address[]",
                    "name": "",
                    "type": "address[]"
                }
            ],
            "stateMutability": "view",
            "type": "function"
        },
        {
            "inputs": [
                {
                    "internalType": "uint256",
                    "name": "votingID",
                    "type": "uint256"
                }
            ],
            "name": "getVotingStatus",
            "outputs": [
                {
                    "internalType": "bool",
                    "name": "",
                    "type": "bool"
                }
            ],
            "stateMutability": "view",
            "type": "function"
        },
        {
            "inputs": [
                {
                    "internalType": "uint256",
                    "name": "votingID",
                    "type": "uint256"
                },
                {
                    "internalType": "address",
                    "name": "votedCandidate",
                    "type": "address"
                }
            ],
            "name": "makeVote",
            "outputs": [
                {
                    "internalType": "bool",
                    "name": "",
                    "type": "bool"
                }
            ],
            "stateMutability": "payable",
            "type": "function"
        },
        {
            "inputs": [],
            "name": "owner",
            "outputs": [
                {
                    "internalType": "address",
                    "name": "",
                    "type": "address"
                }
            ],
            "stateMutability": "view",
            "type": "function"
        },
        {
            "inputs": [],
            "name": "renounceOwnership",
            "outputs": [],
            "stateMutability": "nonpayable",
            "type": "function"
        },
        {
            "inputs": [
                {
                    "internalType": "address",
                    "name": "newOwner",
                    "type": "address"
                }
            ],
            "name": "transferOwnership",
            "outputs": [],
            "stateMutability": "nonpayable",
            "type": "function"
        },
        {
            "inputs": [],
            "name": "withdrawCreatorFee",
            "outputs": [
                {
                    "internalType": "bool",
                    "name": "",
                    "type": "bool"
                }
            ],
            "stateMutability": "nonpayable",
            "type": "function"
        }
    ],
    "bytecode": "608060405234801561001057600080fd5b5061001a3361001f565b61006f565b600080546001600160a01b038381166001600160a01b0319831681178455604051919092169283917f8be0079c531659141344cd1fd0a4f28419497f9722a3daafe3b4186f6b6457e09190a35050565b610f648061007e6000396000f3fe6080604052600436106100915760003560e01c8063abe7c08e11610059578063abe7c08e1461014b578063be58b30e1461016b578063c86a95e514610198578063f1675271146101b8578063f2fde38b146101cd57600080fd5b806305ea879c14610096578063715018a6146100c9578063896eb98b146100e05780638da5cb5b146101035780638f6339941461012b575b600080fd5b3480156100a257600080fd5b506100b66100b1366004610c26565b6101ed565b6040519081526020015b60405180910390f35b3480156100d557600080fd5b506100de6102b8565b005b6100f36100ee366004610c26565b6102ee565b60405190151581526020016100c0565b34801561010f57600080fd5b506000546040516001600160a01b0390911681526020016100c0565b34801561013757600080fd5b506100f3610146366004610c52565b61058d565b34801561015757600080fd5b506100f3610166366004610c52565b6105f7565b34801561017757600080fd5b5061018b610186366004610c52565b61078b565b6040516100c09190610c6b565b3480156101a457600080fd5b506100b66101b3366004610cce565b610823565b3480156101c457600080fd5b506100f361093c565b3480156101d957600080fd5b506100de6101e8366004610d93565b6109f8565b60006101f883610a93565b61021d5760405162461bcd60e51b815260040161021490610db5565b60405180910390fd5b60008381526001602090815260408083206001600160a01b0386168452600281019092529091205460ff166102945760405162461bcd60e51b815260206004820152601960248201527f43616e64696461746520646f6573206e6f742065786973742e000000000000006044820152606401610214565b6001600160a01b038316600090815260069091016020526040902054905092915050565b6000546001600160a01b031633146102e25760405162461bcd60e51b815260040161021490610de5565b6102ec6000610ac6565b565b60006102f983610a93565b6103155760405162461bcd60e51b815260040161021490610db5565b34662386f26fc100001461037f5760405162461bcd60e51b815260206004820152602b60248201527f596f75206e65656420746f2073656e6420302e303120457468657220746f206d60448201526a30b5b29030903b37ba329760a91b6064820152608401610214565b600083815260016020526040902061039681610b16565b6103e25760405162461bcd60e51b815260206004820152601c60248201527f566f74696e672068617320616c72656164792066696e69736865642e000000006044820152606401610214565b33600081815260038301602052604090205460ff161561044e5760405162461bcd60e51b815260206004820152602160248201527f596f7520616c726561647920766f74656420696e207468697320766f74696e676044820152601760f91b6064820152608401610214565b6001600160a01b038416600090815260028301602052604090205460ff166104b85760405162461bcd60e51b815260206004820152601b60248201527f5468657265206973206e6f20737563682063616e6469646174652e00000000006044820152606401610214565b6001600160a01b038416600090815260068301602052604081208054600192906104e3908490610e30565b909155505060048201546001600160a01b03851660009081526006840160205260409020541115610544576001600160a01b038416600081815260068401602052604090205460048401556005830180546001600160a01b03191690911790555b6001600160a01b03811660009081526003830160205260408120805460ff1916600117905560088301805434929061057d908490610e30565b9091555060019695505050505050565b600061059882610a93565b6105b45760405162461bcd60e51b815260040161021490610db5565b60008281526001602052604081208054909160ff909116908160018111156105de576105de610e48565b036105ed575060019392505050565b5060009392505050565b600061060282610a93565b61061e5760405162461bcd60e51b815260040161021490610db5565b600082815260016020526040902061063581610b16565b6106815760405162461bcd60e51b815260206004820152601c60248201527f566f74696e672068617320616c72656164792066696e69736865642e000000006044820152606401610214565b61068a81610b36565b6106cf5760405162461bcd60e51b81526020600482015260166024820152752b37ba34b7339034b99039ba34b6361033b7b4b7339760511b6044820152606401610214565b805460ff19166001178155600581015460088201546001600160a01b0390911690600090600a90610701906009610e5e565b61070b9190610e7d565b9050600081846008015461071f9190610e9f565b905080600360008282546107339190610e30565b90915550506040516000906001600160a01b0385169084156108fc0290859084818181858888f1935050505090508061077e5760405162461bcd60e51b815260040161021490610eb6565b5060019695505050505050565b606061079682610a93565b6107b25760405162461bcd60e51b815260040161021490610db5565b6000828152600160208181526040928390209182018054845181840281018401909552808552929392909183018282801561081657602002820191906000526020600020905b81546001600160a01b031681526001909101906020018083116107f8575b5050505050915050919050565b600080546001600160a01b0316331461084e5760405162461bcd60e51b815260040161021490610de5565b61085c600280546001019055565b60006001600061086b60025490565b8152602001908152602001600020905060005b83518110156108e55760018260020160008684815181106108a1576108a1610eff565b6020908102919091018101516001600160a01b03168252810191909152604001600020805460ff1916911515919091179055806108dd81610f15565b91505061087e565b5061091a6108f6426203f480610e30565b6007830190815467ffffffffffffffff191667ffffffffffffffff91909116179055565b825161092f9060018301906020860190610b95565b506002549150505b919050565b600080546001600160a01b031633146109675760405162461bcd60e51b815260040161021490610de5565b6003546109ad5760405162461bcd60e51b81526020600482015260146024820152732737ba3434b733903a37903bb4ba34323930bb9760611b6044820152606401610214565b600354604051600091339181156108fc02919084818181858888f193505050509050806109ec5760405162461bcd60e51b815260040161021490610eb6565b50506000600355600190565b6000546001600160a01b03163314610a225760405162461bcd60e51b815260040161021490610de5565b6001600160a01b038116610a875760405162461bcd60e51b815260206004820152602660248201527f4f776e61626c653a206e6577206f776e657220697320746865207a65726f206160448201526564647265737360d01b6064820152608401610214565b610a9081610ac6565b50565b600090815260016020908152604091829020825191820190925260079091015467ffffffffffffffff1690819052151590565b600080546001600160a01b038381166001600160a01b0319831681178455604051919092169283917f8be0079c531659141344cd1fd0a4f28419497f9722a3daafe3b4186f6b6457e09190a35050565b600080825460ff166001811115610b2f57610b2f610e48565b1492915050565b6040805160208101909152600782015467ffffffffffffffff168152600090610b5e90610b64565b92915050565b6000610b7a825167ffffffffffffffff16151590565b8015610b5e575050514267ffffffffffffffff909116111590565b828054828255906000526020600020908101928215610bea579160200282015b82811115610bea57825182546001600160a01b0319166001600160a01b03909116178255602090920191600190910190610bb5565b50610bf6929150610bfa565b5090565b5b80821115610bf65760008155600101610bfb565b80356001600160a01b038116811461093757600080fd5b60008060408385031215610c3957600080fd5b82359150610c4960208401610c0f565b90509250929050565b600060208284031215610c6457600080fd5b5035919050565b6020808252825182820181905260009190848201906040850190845b81811015610cac5783516001600160a01b031683529284019291840191600101610c87565b50909695505050505050565b634e487b7160e01b600052604160045260246000fd5b60006020808385031215610ce157600080fd5b823567ffffffffffffffff80821115610cf957600080fd5b818501915085601f830112610d0d57600080fd5b813581811115610d1f57610d1f610cb8565b8060051b604051601f19603f83011681018181108582111715610d4457610d44610cb8565b604052918252848201925083810185019188831115610d6257600080fd5b938501935b82851015610d8757610d7885610c0f565b84529385019392850192610d67565b98975050505050505050565b600060208284031215610da557600080fd5b610dae82610c0f565b9392505050565b6020808252601690820152752b37ba34b733903237b2b9903737ba1032bc34b9ba1760511b604082015260600190565b6020808252818101527f4f776e61626c653a2063616c6c6572206973206e6f7420746865206f776e6572604082015260600190565b634e487b7160e01b600052601160045260246000fd5b60008219821115610e4357610e43610e1a565b500190565b634e487b7160e01b600052602160045260246000fd5b6000816000190483118215151615610e7857610e78610e1a565b500290565b600082610e9a57634e487b7160e01b600052601260045260246000fd5b500490565b600082821015610eb157610eb1610e1a565b500390565b60208082526029908201527f4572726f72207768696c652073656e64696e672072657761726420746f20746860408201526832903bb4b73732b91760b91b606082015260800190565b634e487b7160e01b600052603260045260246000fd5b600060018201610f2757610f27610e1a565b506001019056fea26469706673582212200201da58c5485dc5eaa8cc8673bb427468cf9986b363b48a6770fa1888c23d7164736f6c634300080f0033",
    "sourcePath": "/Users/arslanrashidov/Desktop/VotingSystem/contracts/VotingSystem.sol",
    "compiler": {
        "name": "solc",
        "version": "0.8.15+commit.e14f2714"
    },
    "functionHashes": {
        "createVoting(address[])": "c86a95e5",
        "finishVoting(uint256)": "abe7c08e",
        "getCandidateVotes(uint256,address)": "05ea879c",
        "getVotingCandidates(uint256)": "be58b30e",
        "getVotingStatus(uint256)": "8f633994",
        "makeVote(uint256,address)": "896eb98b",
        "owner()": "8da5cb5b",
        "renounceOwnership()": "715018a6",
        "transferOwnership(address)": "f2fde38b",
        "withdrawCreatorFee()": "f1675271"
    },
    "gasEstimates": {
        "creation": {
            "codeDepositCost": "788000",
            "executionCost": "26666",
            "totalCost": "814666"
        },
        "external": {
            "createVoting(address[])": "infinite",
            "finishVoting(uint256)": "infinite",
            "getCandidateVotes(uint256,address)": "7171",
            "getVotingCandidates(uint256)": "infinite",
            "getVotingStatus(uint256)": "4920",
            "makeVote(uint256,address)": "infinite",
            "owner()": "2368",
            "renounceOwnership()": "28137",
            "transferOwnership(address)": "28397",
            "withdrawCreatorFee()": "infinite"
        },
        "internal": {
            "_isCreatorFeeEmpty()": "infinite",
            "_isVoterVoted(struct VotingSystem.Voting storage pointer,address)": "infinite",
            "_isVotingActive(struct VotingSystem.Voting storage pointer)": "2192",
            "_isVotingCandidateExists(struct VotingSystem.Voting storage pointer,address)": "infinite",
            "_isVotingExists(uint256)": "infinite",
            "_isVotingExpired(struct VotingSystem.Voting storage pointer)": "infinite"
        }
    }
}