{
  "_format": "hh-sol-artifact-1",
  "contractName": "VotingSystem",
  "sourceName": "contracts/VotingSystem.sol",
  "abi": [
    {
      "anonymous": false,
      "inputs": [
        {
          "indexed": false,
          "internalType": "bool",
          "name": "isSent",
          "type": "bool"
        },
        {
          "indexed": false,
          "internalType": "uint256",
          "name": "amount",
          "type": "uint256"
        }
      ],
      "name": "CreatorFeeWithdrawed",
      "type": "event"
    },
    {
      "anonymous": false,
      "inputs": [
        {
          "indexed": false,
          "internalType": "uint256",
          "name": "votingID",
          "type": "uint256"
        },
        {
          "indexed": false,
          "internalType": "address",
          "name": "candidate",
          "type": "address"
        },
        {
          "indexed": false,
          "internalType": "uint256",
          "name": "votes",
          "type": "uint256"
        }
      ],
      "name": "GotCandidateVotes",
      "type": "event"
    },
    {
      "anonymous": false,
      "inputs": [
        {
          "indexed": false,
          "internalType": "uint256",
          "name": "votingID",
          "type": "uint256"
        },
        {
          "indexed": false,
          "internalType": "address[]",
          "name": "candidates",
          "type": "address[]"
        }
      ],
      "name": "GotVotingCandidates",
      "type": "event"
    },
    {
      "anonymous": false,
      "inputs": [
        {
          "indexed": false,
          "internalType": "uint256",
          "name": "votingID",
          "type": "uint256"
        },
        {
          "indexed": false,
          "internalType": "bool",
          "name": "isActive",
          "type": "bool"
        }
      ],
      "name": "GotVotingStatus",
      "type": "event"
    },
    {
      "anonymous": false,
      "inputs": [
        {
          "indexed": true,
          "internalType": "address",
          "name": "previousOwner",
          "type": "address"
        },
        {
          "indexed": true,
          "internalType": "address",
          "name": "newOwner",
          "type": "address"
        }
      ],
      "name": "OwnershipTransferred",
      "type": "event"
    },
    {
      "anonymous": false,
      "inputs": [
        {
          "indexed": false,
          "internalType": "uint256",
          "name": "votingID",
          "type": "uint256"
        },
        {
          "indexed": false,
          "internalType": "address",
          "name": "votedCandidate",
          "type": "address"
        },
        {
          "indexed": false,
          "internalType": "address",
          "name": "voter",
          "type": "address"
        }
      ],
      "name": "VoteMade",
      "type": "event"
    },
    {
      "anonymous": false,
      "inputs": [
        {
          "indexed": false,
          "internalType": "address[]",
          "name": "candidates",
          "type": "address[]"
        },
        {
          "indexed": false,
          "internalType": "uint256",
          "name": "votingID",
          "type": "uint256"
        }
      ],
      "name": "VotingCreated",
      "type": "event"
    },
    {
      "anonymous": false,
      "inputs": [
        {
          "indexed": false,
          "internalType": "uint256",
          "name": "votingID",
          "type": "uint256"
        },
        {
          "indexed": false,
          "internalType": "address",
          "name": "winner",
          "type": "address"
        }
      ],
      "name": "VotingFinished",
      "type": "event"
    },
    {
      "inputs": [
        {
          "internalType": "address[]",
          "name": "candidates_",
          "type": "address[]"
        }
      ],
      "name": "createVoting",
      "outputs": [],
      "stateMutability": "nonpayable",
      "type": "function"
    },
    {
      "inputs": [
        {
          "internalType": "uint256",
          "name": "votingID",
          "type": "uint256"
        }
      ],
      "name": "finishVoting",
      "outputs": [],
      "stateMutability": "nonpayable",
      "type": "function"
    },
    {
      "inputs": [
        {
          "internalType": "uint256",
          "name": "votingID",
          "type": "uint256"
        },
        {
          "internalType": "address",
          "name": "candidate",
          "type": "address"
        }
      ],
      "name": "getCandidateVotes",
      "outputs": [],
      "stateMutability": "nonpayable",
      "type": "function"
    },
    {
      "inputs": [
        {
          "internalType": "uint256",
          "name": "votingID",
          "type": "uint256"
        }
      ],
      "name": "getVotingCandidates",
      "outputs": [],
      "stateMutability": "nonpayable",
      "type": "function"
    },
    {
      "inputs": [
        {
          "internalType": "uint256",
          "name": "votingID",
          "type": "uint256"
        }
      ],
      "name": "getVotingStatus",
      "outputs": [],
      "stateMutability": "nonpayable",
      "type": "function"
    },
    {
      "inputs": [
        {
          "internalType": "uint256",
          "name": "votingID",
          "type": "uint256"
        },
        {
          "internalType": "address",
          "name": "votedCandidate",
          "type": "address"
        }
      ],
      "name": "makeVote",
      "outputs": [],
      "stateMutability": "payable",
      "type": "function"
    },
    {
      "inputs": [],
      "name": "owner",
      "outputs": [
        {
          "internalType": "address",
          "name": "",
          "type": "address"
        }
      ],
      "stateMutability": "view",
      "type": "function"
    },
    {
      "inputs": [],
      "name": "renounceOwnership",
      "outputs": [],
      "stateMutability": "nonpayable",
      "type": "function"
    },
    {
      "inputs": [
        {
          "internalType": "address",
          "name": "newOwner",
          "type": "address"
        }
      ],
      "name": "transferOwnership",
      "outputs": [],
      "stateMutability": "nonpayable",
      "type": "function"
    },
    {
      "inputs": [],
      "name": "withdrawCreatorFee",
      "outputs": [],
      "stateMutability": "nonpayable",
      "type": "function"
    }
  ],
  "bytecode": "0x608060405234801561001057600080fd5b5061002161001c610026565b61002a565b61007a565b3390565b600080546001600160a01b038381166001600160a01b0319831681178455604051919092169283917f8be0079c531659141344cd1fd0a4f28419497f9722a3daafe3b4186f6b6457e09190a35050565b6111c2806100896000396000f3fe6080604052600436106100915760003560e01c8063abe7c08e11610059578063abe7c08e1461012b578063be58b30e1461014b578063c86a95e51461016b578063f16752711461018b578063f2fde38b146101a057610091565b806305ea879c14610096578063715018a6146100b8578063896eb98b146100cd5780638da5cb5b146100e05780638f6339941461010b575b600080fd5b3480156100a257600080fd5b506100b66100b1366004610d3f565b6101c0565b005b3480156100c457600080fd5b506100b661027d565b6100b66100db366004610d3f565b6102c8565b3480156100ec57600080fd5b506100f56104b6565b6040516101029190610d6a565b60405180910390f35b34801561011757600080fd5b506100b6610126366004610d27565b6104c5565b34801561013757600080fd5b506100b6610146366004610d27565b61059e565b34801561015757600080fd5b506100b6610166366004610d27565b6106fb565b34801561017757600080fd5b506100b6610186366004610c66565b610770565b34801561019757600080fd5b506100b66108c3565b3480156101ac57600080fd5b506100b66101bb366004610c45565b610999565b6101c982610a0a565b6101ee5760405162461bcd60e51b81526004016101e590610f71565b60405180910390fd5b60008281526001602052604090206102068183610a48565b6102225760405162461bcd60e51b81526004016101e590610fe2565b6001600160a01b0382166000908152600682016020526040908190205490517f75f41a4d646efa5e4dc07d852cf656a3aa0e0cf9d92c05e9dbf4765f7be17e7391610270918691869161104f565b60405180910390a1505050565b610285610a6a565b6001600160a01b03166102966104b6565b6001600160a01b0316146102bc5760405162461bcd60e51b81526004016101e590610f3c565b6102c66000610a6e565b565b6102d182610a0a565b6102ed5760405162461bcd60e51b81526004016101e590610f71565b34662386f26fc10000146103135760405162461bcd60e51b81526004016101e590610e8c565b600082815260016020526040902061032a81610abe565b6103465760405162461bcd60e51b81526004016101e590610ddf565b336103518282610aec565b1561036e5760405162461bcd60e51b81526004016101e590610fa1565b6103788284610a48565b6103945760405162461bcd60e51b81526004016101e590610f05565b6001600160a01b038316600090815260068301602052604081208054600192906103bf9084906110d7565b909155505060048201546001600160a01b03841660009081526006840160205260409020541115610436576001600160a01b0380841660008181526006850160205260409020546004850155600584015490911614610436576005820180546001600160a01b0319166001600160a01b0385161790555b6001600160a01b03811660009081526003830160205260408120805460ff1916600117905560088301805434929061046f9084906110d7565b90915550506040517fefab4897fc7e9ada38722f329478c4ba183e3d00611d4e758ed51a3042499413906104a890869086908590611030565b60405180910390a150505050565b6000546001600160a01b031690565b6104ce81610a0a565b6104ea5760405162461bcd60e51b81526004016101e590610f71565b60008181526001602052604081208054909160ff9091169081600181111561052257634e487b7160e01b600052602160045260246000fd5b1415610567577f5fd5e2c63caab64b305ca781c28470e5262fc1cb36a042794ae3262d1aea171583600160405161055a9291906110c7565b60405180910390a1610599565b7f5fd5e2c63caab64b305ca781c28470e5262fc1cb36a042794ae3262d1aea17158360006040516102709291906110c7565b505050565b6105a781610a0a565b6105c35760405162461bcd60e51b81526004016101e590610f71565b60008181526001602052604090206105da81610abe565b6105f65760405162461bcd60e51b81526004016101e590610ddf565b6105ff81610b0e565b61061b5760405162461bcd60e51b81526004016101e590610e16565b805460ff19166001178155600581015460088201546001600160a01b0390911690600090600a9061064d90600961110f565b61065791906110ef565b9050600081846008015461066b919061112e565b9050806003600082825461067f91906110d7565b90915550506040516001600160a01b0384169083156108fc029084906000818181858888f193505050501580156106ba573d6000803e3d6000fd5b507f4b45899370a7b27f3680fdedbe765505521fd6af0f1bd77a377399b019c2c8a685846040516106ec929190611019565b60405180910390a15050505050565b61070481610a0a565b6107205760405162461bcd60e51b81526004016101e590610f71565b60008181526001602081905260409182902091517fa6c65e48ae6cf30666755fb4b9cef8c47a3df243b6c52268da0055885d26a22b9161076491859185019061106e565b60405180910390a15050565b610778610a6a565b6001600160a01b03166107896104b6565b6001600160a01b0316146107af5760405162461bcd60e51b81526004016101e590610f3c565b6107b96002610b3c565b6000600160006107c96002610b45565b8152602001908152602001600020905060005b825181101561085157600182600201600085848151811061080d57634e487b7160e01b600052603260045260246000fd5b6020908102919091018101516001600160a01b03168252810191909152604001600020805460ff19169115159190911790558061084981611145565b9150506107dc565b5061086c610862426203f4806110d7565b6007830190610b49565b81516108819060018301906020850190610bb4565b50600060048201557ffb341962ad372403708d19b73b98c63764a29dbd45e478335956fe01157a21a4826108b56002610b45565b604051610764929190610d7e565b6108cb610a6a565b6001600160a01b03166108dc6104b6565b6001600160a01b0316146109025760405162461bcd60e51b81526004016101e590610f3c565b61090a610b68565b156109275760405162461bcd60e51b81526004016101e590610ed7565b600354604051339180156108fc02916000818181858888f19350505050158015610955573d6000803e3d6000fd5b507f7a122cf1b2d0853fa07bff232173a41eb6981731254714a8a55365573d0b91a1600160035460405161098a929190610dcf565b60405180910390a16000600355565b6109a1610a6a565b6001600160a01b03166109b26104b6565b6001600160a01b0316146109d85760405162461bcd60e51b81526004016101e590610f3c565b6001600160a01b0381166109fe5760405162461bcd60e51b81526004016101e590610e46565b610a0781610a6e565b50565b60008181526001602090815260408083208151928301909152600781015467ffffffffffffffff16825290610a3e90610b6f565b159150505b919050565b6001600160a01b03166000908152600291909101602052604090205460ff1690565b3390565b600080546001600160a01b038381166001600160a01b0319831681178455604051919092169283917f8be0079c531659141344cd1fd0a4f28419497f9722a3daafe3b4186f6b6457e09190a35050565b600080825460ff166001811115610ae557634e487b7160e01b600052602160045260246000fd5b1492915050565b6001600160a01b03166000908152600391909101602052604090205460ff1690565b6040805160208101909152600782015467ffffffffffffffff168152600090610b3690610b7e565b92915050565b80546001019055565b5490565b815467ffffffffffffffff191667ffffffffffffffff91909116179055565b6003541590565b5167ffffffffffffffff161590565b6000610b8982610ba4565b8015610b36575050514267ffffffffffffffff909116111590565b5167ffffffffffffffff16151590565b828054828255906000526020600020908101928215610c09579160200282015b82811115610c0957825182546001600160a01b0319166001600160a01b03909116178255602090920191600190910190610bd4565b50610c15929150610c19565b5090565b5b80821115610c155760008155600101610c1a565b80356001600160a01b0381168114610a4357600080fd5b600060208284031215610c56578081fd5b610c5f82610c2e565b9392505050565b60006020808385031215610c78578182fd5b823567ffffffffffffffff80821115610c8f578384fd5b818501915085601f830112610ca2578384fd5b813581811115610cb457610cb4611176565b83810260405185828201018181108582111715610cd357610cd3611176565b604052828152858101935084860182860187018a1015610cf1578788fd5b8795505b83861015610d1a57610d0681610c2e565b855260019590950194938601938601610cf5565b5098975050505050505050565b600060208284031215610d38578081fd5b5035919050565b60008060408385031215610d51578081fd5b82359150610d6160208401610c2e565b90509250929050565b6001600160a01b0391909116815260200190565b604080825283519082018190526000906020906060840190828701845b82811015610dc05781516001600160a01b031684529284019290840190600101610d9b565b50505092019290925292915050565b9115158252602082015260400190565b6020808252601c908201527f566f74696e672068617320616c72656164792066696e69736865642e00000000604082015260600190565b6020808252601690820152752b37ba34b7339034b99039ba34b6361033b7b4b7339760511b604082015260600190565b60208082526026908201527f4f776e61626c653a206e6577206f776e657220697320746865207a65726f206160408201526564647265737360d01b606082015260800190565b6020808252602b908201527f596f75206e65656420746f2073656e6420302e303120457468657220746f206d60408201526a30b5b29030903b37ba329760a91b606082015260800190565b6020808252601490820152732737ba3434b733903a37903bb4ba34323930bb9760611b604082015260600190565b6020808252601b908201527f5468657265206973206e6f20737563682063616e6469646174652e0000000000604082015260600190565b6020808252818101527f4f776e61626c653a2063616c6c6572206973206e6f7420746865206f776e6572604082015260600190565b6020808252601690820152752b37ba34b733903237b2b9903737ba1032bc34b9ba1760511b604082015260600190565b60208082526021908201527f596f7520616c726561647920766f74656420696e207468697320766f74696e676040820152601760f91b606082015260800190565b60208082526019908201527f43616e64696461746520646f6573206e6f742065786973742e00000000000000604082015260600190565b9182526001600160a01b0316602082015260400190565b9283526001600160a01b03918216602084015216604082015260600190565b9283526001600160a01b03919091166020830152604082015260600190565b60006040820184835260206040818501528185548084526060860191508685528285209350845b818110156110ba5784546001600160a01b031683526001948501949284019201611095565b5090979650505050505050565b9182521515602082015260400190565b600082198211156110ea576110ea611160565b500190565b60008261110a57634e487b7160e01b81526012600452602481fd5b500490565b600081600019048311821515161561112957611129611160565b500290565b60008282101561114057611140611160565b500390565b600060001982141561115957611159611160565b5060010190565b634e487b7160e01b600052601160045260246000fd5b634e487b7160e01b600052604160045260246000fdfea2646970667358221220ea739bd275e22549d914bcc89482a9d7b7387c6d3a7fe51f98de558073fe6ec064736f6c63430008000033",
  "linkReferences": {},
  "deployedLinkReferences": {}
}